:03000000020008F3
:090061007508007509380200035E
:0300030002006A8E
:10006A007F00C007120AC6900032120AEED007209B
:10007A009420900032C007120AEED007209413C2CF
:10008A00AF900064120AEE85088285098312000681
:10009A0080FEC0071200E112080BD007EF20E00E25
:1000AA0020B2178F82C007120430D007800C20B20A
:1000BA00098F82C007120129D0072094DF900032ED
:1000CA00C007120AEED0072094080F75F00BEF84D0
:1000DA00AFF03094FD80C553930C5392DF439320C5
:1000EA0022AA82851B82851C83E0A37B08D2950005
:1000FA00003392950000C295DBF3E0A37B08D2950A
:10010A0000003392950000C295DBF3E0A37B08D28E
:0F011A009500003392950000C295DBF3DACB22FB
:100E050000202060202020102010FFFF000000009F
:100E15000000FF3F4040204010400840007800009F
:100E25000000F87F08210821FF3F08210821F87FED
:100E35000000FEFF02082210DA0806070000000085
:100E4500041024084406840164829C4C4020301818
:100E55000F06C80108060818282018400080000061
:100E6500400040404220CC1F00200040FC4F04447D
:100E750002420040FC7F04420444FC430040000061
:100E8500204010300800FC7723801081888867B2E5
:100E95000484F483048024E054008C110060000075
:100EA50000800060FE1F02000210FA12AA12AA5268
:100EB500AA92AA72AA1AAA16FA1202100210000021
:100EC50010018800C4FF33000442F4329402947286
:100ED500F4829F86F49A948294E2F40A0432000024
:100EE50020002000FFFF20002408F40B541954694A
:100EF5005409FF0B54495589567DF40B040800002D
:100F05004004300411049604900490449184967E24
:100F1500900690059804140413045004300400004E
:100F250000000000000000000000000000000000BC
:100F350000000000000000000000000000000000AC
:100F45008400741F2F0924092449249F2F40E43F5E
:100F5500848070408F33080C0833F8400880000007
:100F650000401040604080430040FF7F004000404B
:100F75000040FF7F00420041C0403040004000007B
:100F850000000020E0109C08840684408480F47FE3
:100F95008200820083028204800880300000000005
:100FA5001010920C92FFFE4492449244FEFC1000F5
:100FB50009088A088C08F8FF8C088A0809080000C7
:100FC500000000000000000000000000000000001C
:100FD500000000000000000000000000000000000C
:100FE5002000240824482484FE7F23022241204037
:100FF5002020FF13200C22142C22A04120F80000F1
:10100500800064412C21349124892487EC4D32558C
:101015002225222532552E4D2381A2806080000095
:101025004004300411049604900490449184967E03
:10103500900690059804140413045004300400002D
:10104500000002080218020812042204C204020267
:101055000202024102810240FE3F00000000000042
:10106500000000000000000000000000000000007B
:10107500000000000000000000000000000000006B
:1010850000004804480448C4F87FFC3F44424442F9
:101095004020FE37401C443CC86650434060000079
:1010A5000000C020C4304C99344D444FC45FBC751A
:1010B500542544654455344D3E45E241E040000029
:1010C5000000C0006000F87F06004218600C1C0795
:1010D5001E42D87FD87F18005803780E18180000D4
:1010E5000000000000000000F833F83000000000A8
:1010F50000000000000000000000000000000000EB
:1011050000000000000000000000000000000000DA
:1011150000000000000000000000000000000000CA
:101125000000488848884888F8FF4404440444423D
:101135004040FE21401E443C4842F08140E0000012
:101145000000C00024202C913489648FA49D3C5557
:101155002465246524653C95248D2080C08000008D
:10116500000084C08831100D0000808378800080E5
:101175000080FC9F004000201810E00C00030004D4
:101185000000F0FF10841084FEFF10841084F0FF2F
:101195000000F87F04000440844174420C7C000088
:1011A500000000000000000000000000000000003A
:1011B500000000000000000000000000000000002A
:1011C5008040404030421E42104210421042FF7F94
:1011D50010421042104210421042104000400000E0
:1011E500000000000000FEFF8240824082408240F5
:1011F500824082408240FEFF0000000000000000A7
:101205000001E0000000FFFF1000208108410831C7
:10121500080DFF03080D0831F84100810081000029
:1012250000000020E0109C08840684408480F47F40
:101235008200820083028204800880300000000062
:101245000000000000000000000000000000000099
:101255000000000000000000000000000000000089
:10126500202124112C4D3581E67F34052C5924216C
:101275000018FC0724002400E2FF220022000000E1
:101285004004400444025402547FD44A744A5F4ADD
:10129500544A544AD47E5401540344064002000083
:1012A50070000000FFFF0800B08088408830880E7D
:1012B500FF01880688088830F86080C080400000FB
:1012C500000000204018FC0C44074412442046400E
:1012D500FA3F420043004302420C40380010000030
:1012E50000000000000000000000000000000000F9
:1012F50000000000000000000000000000000000E9
:1013050000088848886488128889FE85888088FF57
:1013150088048818FE608805881A88248848000093
:101325000000000888E86899689B689D6899689935
:101335005E9968996899689F689AE8E900080000CD
:101345000000004038202410208C2083F0812E439B
:10135500204D203124312449284720812080000058
:101365000000F8C70430E40F04080438F8C700107B
:101375001008108C10829081FCFF100010000000F6
:101385000000000000000000000000000000000058
:101395000000000000000000000000000000000048
:1013A50040003002100212025C0254025042518287
:1013B5005E7FD4025002180257023202100200006A
:1013C50010801043F0221F14100CF073802082004F
:1013D50082408280F27F8A008600820080000000C1
:1013E50010429242542A382EFF13381A54265202BC
:1013F5008040F0201F13120C1033F0601020000005
:1014050000000000F80F4804480448044804FF3F62
:101415004844484448444844F84F004000700000A0
:1014250000000000000000000000000000000000B7
:1014350000000000000000000000000000000000A7
:1014450000800060FE1F020012202210C20C020361
:10145500C20C32300200FE0F0030004000F80000E0
:1014650040804080424044205818C00740007F001B
:101475004000C03F50404840464040404078000052
:101485000080404042204210420CC2037E004200D0
:10149500C23F424042404240404040700000000090
:1014A5000000FEFF22045A0886070000FEFF924056
:1014B50092209203920C9214FE22004100400000FB
:1014C5000000000000000000000000000000000017
:1014D5000000000000000000000000000000000007
:10012900AF82900028C007120AEED007E4F50AF55D
:100139000BEF75F0A0A42405FE740E35F0FF7510C1
:1001490000E5102510FC042EF582E43FF583E493C5
:10015900FA7B00EC2EF582E43FF583E493F97C0009
:100169002BF50EEC3AF50F8C11E50E30E079A8115C
:100179007900740FC398FBE499FCAA107D008A8367
:10018900758200751B108D1CC007C006C004C00312
:10019900C001C000120DC9E5828583F0D000D001ED
:1001A90028F8E935F0F9850C1B850D1C900050C025
:1001B90001C000120D00AA82AD83D000D001D00386
:1001C900D004EA28FAED39C423CAC423541F6ACAE1
:1001D900541FCA6ACA8A1B751C008B828C8312063B
:1001E90066D006D0078030740FC3951175F003A44B
:1001F900FD2400F582E43400F583E4F0ED042400E5
:10020900F582E43400F583E4F074022D2400F582CC
:10021900E43400F583E4F0E50FC313C50E13C50EEE
:10022900F50F051174F025114003020172751B00C9
:10023900751C00758210C007C0061200EB9000966D
:10024900120AD8D006D007051074B0251040030251
:10025900014A7F00EF75F003A4FE2400F582E4341F
:1002690000F583E4F0EE042400F582E43400F5831C
:10027900E4F074022E2400F582E43400F583E4F0FE
:100289000FBF100040CE751B00751C00758210123F
:1002990000EB050CE4B50C02050D22AF8290002895
:1002A900C007120AEED007EF75F0A0A42405FE746A
:1002B9000E35F0FF7D00ED2DFC042EF582E43FF5AF
:1002C90083E493FA7B00EC2EF582E43FF583E49313
:1002D900F97C002BFBEC3AFC7A008A0079008882D1
:1002E9008983A3751B02891CC007C006C005C00409
:1002F900C003C002120D93E5828583F0D002D003BA
:10030900D004D005D006D00745F07008050AE4B539
:100319000A02050BEB30E04D8A007900740FC3988F
:10032900F51BE499F51C900003C007C006C005C081
:1003390004C003C002120D00A882A983E82400F8B2
:10034900E93400F9881C891D751E00751B9F850AF3
:1003590082850B8312073FD002D003D004D005D089
:1003690006D007804B8A007900740FC398F51BE407
:1003790099F51C900003C007C006C005C004C0035E
:10038900C002120D00A882A983E82400F8E934000C
:10039900F9881C891D751E00751B00850A82850B4D
:1003A9008312073FD002D003D004D005D006D0076E
:1003B900ECC313CB13CBFC0ABA100050030202E3BF
:1003C900751B00751C00758210C007C006C0051298
:1003D90000EB900096120AD8D005D006D0070DBDC3
:1003E900500050030202BF7F00EF75F003A4FE2402
:1003F90000F582E43400F583E4F0EE042400F5828C
:10040900E43400F583E4F074022E2400F582E43428
:1004190000F583E4F00FBF100040CE751B00751C7A
:10042900007582100200EBAF82900028C007120A03
:10043900EED007EF75F0A0A42405FE740E35F0FF89
:100449007D00ED2DFC042EF582E43FF583E493FA5B
:100459007B00EC2EF582E43FF583E4937C002BF5D9
:1004690012EC3AF513EDC4540FFAC374049AE43349
:10047900F97800E51220E0030205A0E9600302050E
:10048900EBEA2A2A900491730204A00204D302051C
:100499000602053902056D740FC39875F003A4FCB3
:1004A9002400F582E43400F583E4F0EC042400F53B
:1004B90082E43400F5837480F074022C2400F58200
:1004C900E43400F583E4F00205EB740FC39875F08A
:1004D90003A4FC2400F582E43400F583E4F0EC0481
:1004E9002400F582E43400F583E4F074022C24003E
:1004F900F582E43400F5837480F00205EB740FC3D0
:100509009875F003A4FC2400F582E43400F58374A3
:1005190080F0EC042400F582E43400F583E4F074FF
:10052900022C2400F582E43400F583E4F00205EBA3
:10053900740FC39875F003A4FC2400F582E4340019
:10054900F5837480F0EC042400F582E43400F5832B
:100559007480F074022C2400F582E43400F583E4FD
:10056900F00205EB740FC39875F003A4FC2400F5A1
:1005790082E43400F5837480F0EC042400F582E40D
:100589003400F583E4F074022C2400F582E434008D
:10059900F5837480F0804B88037C00740FC39BF54E
:1005A9001BE49CF51C900003C007C006C005C002EF
:1005B900C001C000120D00AB82AC83EB2400FBEC40
:1005C9003400FC8B1C8C1D751E00751B00850A826E
:1005D900850B8312073FD000D001D002D005D00689
:1005E900D007E513C313C51213C512F51308B810C4
:1005F90000500302047C751B00751C00758210C035
:1006090007C006C0051200EB900096120AD8D00563
:10061900D006D0070DBD5000500302044B7F00EFF8
:1006290075F003A4FE2400F582E43400F583E4F0B8
:10063900EE042400F582E43400F583E4F074022E1C
:100649002400F582E43400F583E4F00FBF10004084
:10065900CE751B00751C007582100200EBAE82AFCF
:1006690083C3E51B9455E51C940050388E05ED7540
:10067900F003A4FD2400F582E43400F583E51B753D
:10068900F003A4FCF0ED042400F582E43400F583C2
:1006990074FFC39CF074022D2400F582E43400F544
:1006A90083E4F022C3E51B94AAE51C94005045E5B8
:1006B9001B24ABF51BE51C34FFF51C8E05ED75F00D
:1006C90003A4FD2400F582E43400F583E51B75F0ED
:1006D90003A4FC74FFC39CF0ED042400F582E43408
:1006E90000F583E4F074022D2400F582E43400F56A
:1006F90083ECF022E51B2456F51BE51C34FFF51CA1
:10070900EE75F003A4FE2400F582E43400F583E4D9
:10071900F0EE042400F582E43400F583E51B75F05E
:1007290003A4FFF074022E2400F582E43400F5835B
:1007390074FFC39FF022AE82AF838F05AB1B7C0091
:10074900EB5206EC520775F003ED84AFF0BF0002DF
:10075900800CBF0102803EBF02030207D522AC1CF8
:10076900AD1DAF1E8C828D838FF0EE120CE57401E6
:100779002CF9E43DFA8F03E51BC39E89828A838B9A
:10078900F0120CE574022CFCE43DFD8C828D838F04
:10079900F0E4020CE5AC1CAD1DAF1EE51BC39E8C3D
:1007A900828D838FF0120CE574012CF9E43DFA8FE8
:1007B9000389828A838BF0E4120CE574022CFCE431
:1007C9003DFD8C828D838FF0EE020CE5AC1CAD1DD6
:1007D900AF1E8C828D838FF0E4120CE5042CF9E4B2
:1007E9003DFA8F0389828A838BF0EE120CE574023D
:1007F9002CFCE43DFDE51BC39E8C828D838FF002AA
:100809000CE59000C8120AEE7F00EF75F003A4FE14
:100819002400F582E43400F583740FF0EE0424001B
:10082900F582E43400F583E4F074022E2400F582A5
:10083900E43400F583E4F0751B00751C0075821023
:10084900C0071200EB900014120AEED0070FBF1078
:100859000040B77F00EF75F003A4FE2400F582E4A1
:100869003400F583E4F0EE042400F582E43400F565
:1008790083740FF074022E2400F582E43400F583AA
:10088900E4F0751B00751C00758210C0071200EB9F
:10089900900014120AEED0070FBF100040B77F0076
:1008A900EF75F003A4FE2400F582E43400F583E437
:1008B900F0EE042400F582E43400F583E4F07402D8
:1008C9002E2400F582E43400F583740FF0751B00C3
:1008D900751C00758210C0071200EB900014120AF3
:1008E900EED0070FBF100040B77F00751400E51464
:1008F900C454F02FFDBD5500400302098CC007E523
:100909001475F003A4FC2400FAE43400FBED75F03F
:1009190003A4F8A9F0751B05751C0088828983C09A
:1009290004C003C002C001C000120DC9AE82D000CC
:10093900D001D002D003D0048A828B83EEF0EC047C
:100949002400FEE43400FF74FFC398F582E499F5AE
:1009590083751B05751C00C007C006C004120DC9AC
:10096900AA82AB83D004D006D0078E828F83EAF0A7
:1009790074022C2400F582E43400F583E4F0D007F6
:10098900020A9DBDAA004003020A1AC007ED24AB62
:10099900FDE51475F003A4FE2400FBE43400FCED2E
:1009A90075F003A4F9AAF074FFC399F582E49AF5E6
:1009B90083751B05751C00C006C004C003C002C0B6
:1009C90001120DC9A882D001D002D003D004D006EB
:1009D9008B828C83E8F0EE042400F582E43400F580
:1009E90083E4F074022E2400FEE43400FF751B0535
:1009F900751C0089828A83C007C006120DC9AB82A3
:100A0900AC83D006D0078E828F83EBF0D007020A21
:100A19009DED2456FDE51475F003A4FE2400F5822E
:100A2900E43400F583E4F0EE042400FBE43400FC34
:100A3900ED75F003A4FDAAF0751B05751C008D82E8
:100A49008A83C007C006C005C004C003C002120DD6
:100A5900C9A882D002D003D004D005D0068B828CDD
:100A690083E8F074022E2400FCE43400FE74FFC312
:100A79009DF582E49AF583751B05751C00C006C0B7
:100A890004120DC9AB82AD83D004D006D0078C8285
:100A99008E83EBF0051474F0251440030208F70F58
:100AA900751B00751C00758210C0071200EB9000C1
:100AB90014120AEED00730B2030208F42275A155C8
:100AC90075A1AA74F855B94405F5B975A10022AE06
:100AD90082AF83EE4F600D05A105A105A11EBEFFE2
:100AE900011F80EF22AE82AF83EE4F60159003E8BD
:100AF900C007C006120AD8D006D0071EBEFF011FC4
:100B090080E72243C61022C29FD29EC29DC2CDC297
:100B1900CC438780751611751704E4F518F5197516
:100B29001B0AF51CF51DF51E851682851783851888
:100B3900F0E519120BFDAC828C1A751B0AE4F51C41
:100B4900F51DF51E8516828517838518F0E519129E
:100B59000C8085821685831785F018F51974FB2595
:100B69001A501574012516F516E43517F517E435ED
:100B790018F518E43519F519740F55894420F589C4
:100B890043C9A0AF16C3E49FF58DD28ED299D29CEA
:100B99002210980280FB85998222858299109902F8
:100BA90080FB22AF8210990280FB8F992210980254
:100BB90080FB8599822243C62022C2C7D2C5D2C4EE
:100BC90075C2982210C00280FB85C182228582C12C
:100BD90010C10280FB22AF8275A15575A1AAEF60F1
:100BE9000543B101800353B1FE75A10075FF0022D1
:100BF9008582FF22F9E51B451C451D451E60777856
:100C090000C308E51E20E73BE51B25E0F51BE51CB5
:100C190033F51CE51D33F51DE51E33F51EE58295FB
:100C29001BE583951CE5F0951DE9951E50D4C3E598
:100C39001E13F51EE51D13F51DE51C13F51CE51B1B
:100C490013F51BE582951BFCE583951CFDE5F095E5
:100C59001DFEE9951E4007F98EF08D838C82C3E550
:100C69001E13F51EE51D13F51DE51C13F51CE51BEB
:100C790013F51BD8CEE922FB7A20E4FCFDFEFFE543
:100C8900822582F582E58333F583E5F033F5F0EBD0
:100C990033FB4017DAE98042E5822582F582E58354
:100CA90033F583E5F033F5F0EB33FBEC33FCED334F
:100CB900FDEE33FEEF33FFEC951BED951CEE951D14
:100CC900EF951E4013EC951BFCED951CFDEE951D53
:0C0CD900FEEF951EFF438201DABEEB2205
:06003700E478FFF6D8FD9D
:100015007900E94400601B7A009014E5783075A0FA
:1000250000E493F2A308B8000205A0D9F4DAF2754A
:02003500A0FF2A
:100CE50020F71130F6138883A88220F509F6A8832A
:100CF5007583002280FEF280F5F022E582851BF0E7
:100D0500A4C582C0F0851CF0A4D0F025F0C583856C
:100D15001BF0A42583F58322E51B451C60467A015B
:100D2500E51B25E0F51BE51C334012F51CE5829516
:100D35001BE583951C40030A80E6C3E51C13F51CDF
:100D4500E51B13F51BC3E582951BF5F0E583951CA3
:100D55004005F58385F082C3E51C13F51CE51B13DF
:100D6500F51BDAE1227A10E4FBFCE58225E0F58249
:100D7500E58333F583EB33FBEC33FCEB951BF5F0A7
:0E0D8500EC951C4006FCABF0438201DADD2247
:10003D007800E84400600A790075A000E4F309D85F
:10004D00FC7830E84400600C7901900000E4F0A3E6
:04005D00D8FCD9FAF8
:0F000600E47375811E120E01E582600302000390
:100D9300C2D5E58330E70DD2D5E4C39582F582E46D
:100DA3009583F583E51C30E70BE4C3951BF51BE442
:100DB300951CF51C120D1D30D50BE4C39582F582ED
:100DC300E49583F58322C2D5E58330E70DD2D5E4DC
:100DD300C39582F582E49583F583E51C30E70DB274
:100DE300D5E4C3951BF51BE4951CF51C120D6A3065
:100DF300D50BE4C39582F582E49583F5832275824E
:020E03000022CB
:00000001FF
